:020000040800F2
:10000000B80B0020B10100080D0F0008710C0008AA
:10001000090F000893050008051B000800000000F8
:100020000000000000000000000000009B1300081A
:10003000E305000800000000950F0008B118000853
:10004000CB010008CB010008CB010008CB01000860
:10005000CB010008CB010008CB010008CB01000850
:10006000CB010008CB010008CB010008CB01000840
:10007000CB010008CB010008CB010008CB01000830
:10008000CB010008CB010008CB010008CB01000820
:10009000CB010008CB010008CB010008CB01000810
:1000A000CB010008CB010008CB010008CB01000800
:1000B000CB010008CB010008CB010008CB010008F0
:1000C000CB010008CB010008CB010008CB010008E0
:1000D000CB010008CB010008CB010008CB010008D0
:1000E000CB010008CB010008CB01000800F002F8AA
:1000F00000F03FF80AA090E8000C82448344AAF183
:100100000107DA4501D100F034F8AFF2090EBAE880
:100110000F0013F0010F18BFFB1A43F0010318473B
:100120002822000048220000103A24BF78C878C175
:10013000FAD8520724BF30C830C144BF04680C60ED
:10014000704700000023002400250026103A28BF35
:1001500078C1FBD8520728BF30C148BF0B60704739
:10016000642900F08D80002070471FB51FBD10B5B9
:1001700010BD00F0D8F91146FFF7F7FF01F0D4FFEA
:1001800000F0F6F903B4FFF7F2FF03BC00F0FAF950
:10019000EFF30980704780F309887047EFF3088018
:1001A000704780F30888704740BA7047C0BA7047FC
:1001B0000948804709480047FEE7FEE7FEE7FEE7FB
:1001C000FEE7FEE7FEE7FEE7FEE7FEE70448054937
:1001D000054A064B70470000B5180008ED000008FE
:1001E000B8050020B80B0020B8070020B807002091
:1001F0000FB41CB5074B06AA7B44694600900598CE
:1002000000F047F90020694600F056F91CBC5DF883
:1002100014FB0000BD0200002DE9F0410E4604462B
:10022000002020622046E168884730B3252805D0A9
:10023000D4E901219047206A401CF2E7E16820469A
:1002400000278847050018D0A5F14100192802D8D9
:1002500020354FF400673246294620462760FFF7D5
:100260007FFF40B1012804D0F61D26F007060836AE
:10027000D8E7361DD6E72846DAE7206ABDE8F081E0
:100280002DE9F0410646002410687529314616A56F
:1002900010D0AFF30080002802DA404213A507E037
:1002A00031688A0701D512A502E0490704D511A5D6
:1002B000012401E0AFF3008000210A2206F12407A7
:1002C00009E0B0FBF2FCB0FBF2F302FB1C003030A3
:1002D00078541846491C0028F3D123462A46304654
:1002E000BDE8F04100F077B8000000002D000000EC
:1002F0002B00000020000000032A40F2308010F0A4
:10030000030C00F0158011F8013BBCF1020F6244B0
:1003100098BF11F801CB00F8013B38BF11F8013B41
:10032000A2F1040298BF00F801CB38BF00F8013BEE
:1003300011F0030300F0C580083AC0F0088051F8BE
:10034000043B083A51F804CBA0E80810F5E7121D69
:100350005CBF51F8043B40F8043BAFF30080D20788
:1003600024BF11F8013B11F801CB48BF11F8012B54
:1003700024BF00F8013B00F801CB48BF00F8012B77
:1003800070474FF0000200B5134694469646203958
:1003900022BFA0E80C50A0E80C50B1F12001BFF43E
:1003A000F7AF090728BFA0E80C5048BF0CC05DF8A4
:1003B00004EB890028BF40F8042B08BF704748BFF2
:1003C00020F8022B11F0804F18BF00F8012B704766
:1003D0007047704770472DE9F0470D4699469246A1
:1003E000044600F124080168880604D5E06921F07C
:1003F0001001216000E00120A84201DD471B00E060
:100400000027A1697A1902EB0900081AA061207877
:10041000C00602D42046AFF30080002608E0D4E9ED
:1004200001211AF806009047206A401C761C2062C1
:100430004E45F4DB2078C0060AD52046AFF3008095
:1004400006E0D4E9012130209047206A401C206258
:10045000381EA7F10107F4DC07E0D4E9012118F800
:1004600005009047206A401C2062281EA5F1010566
:10047000F3DC2046AFF300802078000602D502208E
:10048000BDE8F0870120FBE701694A1C026108789A
:10049000704700B58FB0CDE90131002105910549C4
:1004A0007944CDE9031011466846FFF7B5FE0FB059
:1004B00000BD0000E5FFFFFF0A6802F8010B0A60BB
:1004C000704710B5203AC0F00B80B1E81850203AC0
:1004D000A0E81850B1E81850A0E81850BFF4F5AFE4
:1004E0005FEA027C24BFB1E81850A0E8185044BF6E
:1004F00018C918C0BDE810405FEA827C24BF51F8DB
:10050000043B40F8043B08BF7047D20728BF31F8CE
:10051000023B48BF11F8012B28BF20F8023B48BF1F
:1005200000F8012B7047754600F028F8AE4605002C
:100530006946534620F00700854618B020B5FFF7FE
:1005400045FEBDE820404FF000064FF000074FF099
:1005500000084FF0000B21F00701AC46ACE8C009E1
:10056000ACE8C009ACE8C009ACE8C0098D467047EA
:100570000446AFF300802046FFF704FE00487047B2
:100580005805002001491820ABBEFEE726000200F6
:10059000704700BFFEE730B502460023541802E062
:1005A00012F8015B2B44A242FAD3D8B230BDF0B5A9
:1005B00005460E460024AF1905E015F8011BA0B250
:1005C00001F087FA0446BD42F7D3A0B2002101F042
:1005D00080FA04462046002101F07BFA04462046BA
:1005E000F0BD704710B50146134B1B684FF4FA5429
:1005F000B3FBF4F201FB02F34FF0E024636100234C
:10060000A36123461B6943F00103236100BF4FF040
:10061000E023186900F001031BB100F48033002BC4
:10062000F5D04FF0E0231B6923F001034FF0E024E5
:1006300023610023A36110BD440000202DE9F04791
:1006400000240025012602274FF004084FF001097D
:1006500000F09CF9054629480068284027490968A8
:10066000884246D000F08CF90446244800682843AC
:100670002249086000F0E4F8814620480068401CE8
:1006800028B11E480068C04300F078F8814604F0A5
:100690000700072811D004F0010000B9002604F07B
:1006A000020000B9002704F0040008B94FF0000868
:1006B00042463946304600F0D7F9B9F1040F14D15B
:1006C0000FA000F0DFFF164800F0DCFF00BF154868
:1006D000006800F4E06014490843001D11490860F7
:1006E000BFF3408F00BF00BFFEE710A000F0CAFFBD
:1006F00002E019A000F0C6FFBDE8F0872800002046
:1007000057726974652050726F74656374696F6E97
:100710002064697361626C65642E2E2E0D0A0000E0
:10072000A82200080CED00E00000FA054572726F87
:10073000723A20466C61736820777269746520751F
:100740006E70726F74656374696F6E206661696C38
:1007500065642E2E2E0D0A00466C617368206D654F
:100760006D6F7279206E6F74207772697465207076
:10077000726F7465637465640D0A00002DE9F043BF
:1007800004464FF6FF763746B046B1460425E443AB
:10079000E6B2C4F30727C4F307484FEA1469E80236
:1007A00000F096F90546042D3FD121482149886083
:1007B000214888600846006940F010000861FF2E5B
:1007C00005D01E480680E80200F082F90546042D97
:1007D00008D1FF2F06D01948801C0780E80200F0DE
:1007E00077F90546042D0AD1B8F1FF0F07D0134859
:1007F000001DA0F80080E80200F06AF90546042D0B
:100800000AD1B9F1FF0F07D00C48801DA0F8009065
:10081000E80200F05DF90546052D06D0054800699F
:1008200041F6EF710840034908612846BDE8F083AE
:100830002301674500200240AB89EFCD08F8FF1F78
:1008400030B5A525042400F08FF800B100254FF441
:10085000302000F03DF90446042C3AD11E481F49CF
:1008600088601F4888600846006940F020000861E1
:100870000846006940F0400008614FF4302000F065
:1008800027F90446042C1BD11448006941F6DF7196
:100890000840124908610846006940F010000861EC
:1008A00010480580E00200F013F90446052C10D032
:1008B0000A48006941F6EF7108400849086108E0FC
:1008C000052C06D00548006941F6EF710840034940
:1008D0000861204630BD000023016745002002402A
:1008E000AB89EFCD00F8FF1F30B5044604254FF467
:1008F000302000F0EDF80546042D17D10C480069B2
:1009000040F002000A49086108464461006940F06D
:10091000400008614FF4302000F0DAF80546044842
:10092000006941F6FD71084001490861284630BD63
:100930000020024004200B49C96801F0010109B1FF
:1009400001200EE00749C96801F0040109B1022045
:1009500007E00449C96801F0100109B1032000E073
:10096000042070470020024000200449C96901F0BA
:10097000020109B1012000E0002070470020024080
:100980000148C06980087047002002400148006AA1
:10099000704700000020024001B500200099C1F31B
:1009A00009021AB1012202EB912000E0880A08BD79
:1009B0000549096821F01001034A116011460968D0
:1009C00001431160704700000020024078B50646E0
:1009D0000C46042500200090E80200F079F8054656
:1009E000042D24D11348006940F001001149086129
:1009F0003480E80200F06CF80546042D10D1B01CDC
:100A00000090200C00990880E80200F061F805468B
:100A10000848006941F6FE7108400649086106E091
:100A20000448006941F6FE71084002490861284601
:100A300078BD00000020024001460020034A1068F3
:100A400000F03800084310607047000000200240AA
:100A500002480349486003484860704723016745DE
:100A600000200240AB89EFCDF0B505460E46174693
:100A7000042413481349886013488860E00200F09A
:100A800027F80446042C18D10E48006940F01000E5
:100A90000C49086147F0F800304328430B490880AF
:100AA000E00200F015F80446052C06D00548006960
:100AB00041F6EF710840034908612046F0BD00008F
:100AC0002301674500200240AB89EFCD02F8FF1FEC
:100AD00000B502460423FFF72DFF034603E0FFF7AE
:100AE00029FF0346521E012B01D1002AF7D102B97A
:100AF0000523184600BD2DE9F041024600250026D9
:100B0000002000230024002791F803C00CF00F05FB
:100B100091F803C00CF0100CBCF1000F03D091F859
:100B200002C04CEA050591F800C0BCF1000F31D0BD
:100B3000146800202BE04FF0010C0CFA00F3B1F820
:100B400000C00CEA03069E4220D183004FF00F0C38
:100B50000CFA03F7BC4305FA03FC4CEA040491F8D1
:100B600003C0BCF1280F06D14FF0010C0CFA00FCB9
:100B7000C2F814C00AE091F803C0BCF1480F05D1D7
:100B80004FF0010C0CFA00FCC2F810C0401C082801
:100B9000D1D31460B1F800C0BCF1FF0F34DD54684C
:100BA00000202EE000F1080C4FF0010808FA0CF3C9
:100BB000B1F800C00CEA03069E4221D183004FF039
:100BC0000F0C0CFA03F7BC4305FA03FC4CEA0404CF
:100BD00091F803C0BCF1280F05D100F1080C08FA08
:100BE0000CF8C2F8148091F803C0BCF1480F07D18B
:100BF00000F1080C4FF0010808FA0CF8C2F8108058
:100C0000401C0828CED35460BDE8F08110B58EB0EA
:100C100000200D900A2434216846FFF7B2FB10E053
:100C20000DA800F08DFC00B110E04FF47A70FFF7D2
:100C3000D9FC224608A16846FFF7DAFA684600F0B8
:100C400021FD2000A4F10101CCB2E9D100BF9DF843
:100C500034000EB010BD000072656D61696E2074C5
:100C6000696D65203A20256420530D0A0A000000B2
:100C700002A000F007FD00BFFEE700004552524F02
:100C8000522121212121200A0D00000010B500F081
:100C90009FF900F03FFE10BDF0B5144A0025002476
:100CA000002320E0B1FBF2F6303606F0FF0C2E46B2
:100CB0006D1C00F806C0B1FBF2F602FB16110A2605
:100CC000B2FBF6F26E1E865D302E01D1012600E0E9
:100CD00000260CB9012700E000273E400EB1002598
:100CE00000E0641C5B1C0A2BDCD3F0BD00CA9A3BFD
:100CF00010B50F4800680F490840B0F1005F12D1ED
:100D00000DA000F0BFFC0A48406811490860084681
:100D100000681049086006490868FFF742FA0D4864
:100D20000068804702E00CA000F0ACFC10BD0000A1
:100D3000008000080000FE2F45786563757465200B
:100D4000757365722050726F6772616D0D0A0A00CB
:100D5000200000201C0000206E6F2075736572203B
:100D600050726F6772616D0D0A0A000000242E48F0
:100D70000068A0F10060000B2C490860084601786B
:100D800001208840401EC04329490860FFF7FEFD4E
:100D900027490968084026490968884203D001208C
:100DA0002449086002E0002022490860224800F03F
:100DB00069FC224800F066FC214800F063FC2148F1
:100DC00000F060FC1B48006810B11FA000F05AFC46
:100DD0002D4800F057FC25E0FFF718FF0446312CA2
:100DE00002D100F0E3FA1DE0322C02D100F0CAFB80
:100DF00018E0332C00D014B9FFF77AFF12E0342C3E
:100E000006D10C480068012802D1FFF717FC09E061
:100E10000848006818B91DA000F034FC02E02AA0C0
:100E200000F030FCD8E70000000000202400002083
:100E3000280000202C0000201C220008442100086B
:100E40008C210008D4210008202044697361626C61
:100E500065207468652077726974652070726F749C
:100E6000656374696F6E202D2D2D2D2D2D2D2D2D4B
:100E70002D2D2D2D2D2D2D2D2D2D2D2D2D2D2D2DA2
:100E800020340D0A0A00000060220008496E7661D5
:100E90006C6964204E756D6265722021203D3D3E77
:100EA00020546865206E756D6265722073686F7579
:100EB0006C642062652065697468657220312C203D
:100EC00032206F7220330D00496E76616C696420A8
:100ED0004E756D6265722021203D3D3E205468654F
:100EE000206E756D6265722073686F756C64206228
:100EF000652065697468657220312C20322C20339E
:100F0000206F7220340D000000BFFEE77047000024
:100F100070B5002100230F22C47804B3154C246857
:100F200004F4E064C4F5E064210AC1F10403CA409A
:100F3000447804FA03F184781440214309010E4CEB
:100F40000678A155047804F01F050124AC4005780B
:100F50006D11AD0005F1E025C5F8004109E0047808
:100F600004F01F050124AC40044D0678761145F8C5
:100F7000264070BD0CED00E000E400E080E100E000
:100F800002490143024A1160704700000000FA055F
:100F90000CED00E07047000001460020034A506855
:100FA00020F44040084350607047000000100240A9
:100FB00029B1064A92690243044B9A6104E0034A4C
:100FC00092698243014B9A61704700000010024011
:100FD00010B500F037F84FF4803000F0F5F800F06D
:100FE00051F91020FFF7E4FC0220FFF725FD002057
:100FF00000F0DEF8002000F019F94FF4806000F0F6
:1010000009F94FF40040FFF7C7FF4FF4E0114FF428
:10101000803000F01DF9012000F014F900BF3920E4
:1010200000F0A0F80028FAD0022000F01FF900BF5D
:1010300000F0B6F80828FBD16FF0040000F024FCA3
:1010400010BD00000F48006840F001000D49086025
:10105000084640680C4908400A494860084600684C
:101060000A490840074908600846006820F48020C3
:1010700008600846406820F4FE0048604FF41F00F6
:1010800088607047001002400000FFF8FFFFF6FE86
:1010900030B500210022002400232D4D6D6805F09D
:1010A0000C0121B1042905D0082923D105E0294DDF
:1010B000056022E0274D05601FE0254D6D6805F4B1
:1010C0007012234D6D6805F48034022505EB9242C1
:1010D0001CB9214D554305600BE01D4D6D6805F4AD
:1010E00000351DB11C4D5543056002E0194D5543B7
:1010F000056002E0174D056000BF00BF144D6D682C
:1011000005F0F0010909154D6B5C0568DD4045608F
:101110000F4D6D6805F4E061090A104D6B5C456880
:10112000DD4085600A4D6D6805F46051C90A0B4DBC
:101130006B5C4568DD40C560054D6D6805F4404158
:10114000890B074D6B5CC568B5FBF3F5056130BDD8
:101150000010024000127A0000093D00300000201B
:101160004000002010B501460022002300204A1153
:10117000012A02D1094C236806E0022A02D1074C59
:10118000236A01E0054C636A01F01F0201249440C8
:101190001C400CB1012000E0002010BD00100240F6
:1011A0000248406800F00C00704700000010024048
:1011B00001460020034A506820F0F00008435060C8
:1011C00070470000001002401149096821F4803185
:1011D0000F4A11601146096821F480211160B0F5B1
:1011E000803F03D0B0F5802F0ED106E00849096892
:1011F00041F48031064A116007E00549096841F46D
:10120000A021034A116000E000BF00BF704700004A
:101210000010024001460020034A506820F4E060BC
:101220000843506070470000001002400146002053
:10123000034A506820F4605040EAC1005060704793
:101240000010024001490866704700000000424259
:1012500002460020044B586820F47C1042EA010347
:101260001843014B586070470010024001460020AF
:10127000034A506820F003000843506070470000A4
:101280000010024038B5002000900024002500BF67
:101290003120FFF767FF05460098401C009000983A
:1012A000B0F5A06F01D0002DF2D03120FFF75AFF2A
:1012B00008B1012400E00024204638BD70B5054681
:1012C0000C4606E0284600F03BF9012801D1002039
:1012D00070BD2000A4F10104F4D1401EF8E72DE90F
:1012E000F84304460D469046002028604146684673
:1012F000FFF7E4FF18B14FF0FF30BDE8F8839DF829
:101300000000182813D006DC012809D0022809D0D3
:10131000042820D109E041281AD061281BD118E007
:1013200080271BE04FF4806718E00020E5E7414686
:101330006846FFF7C3FF40B99DF80000182804D1A4
:101340004FF0FF3028600020D7E74FF0FF30D4E7A0
:1013500000BF0120D1E74FF0FF30CEE700BF9DF87E
:1013600000002070012609E0A0194146FFF7A6FF02
:1013700010B14FF0FF30C0E7701C86B2781D864276
:10138000F2DB6178A07880F0FF00814202D04FF05C
:10139000FF30B2E72F600020AFE7704710B504467A
:1013A000204600F0DFF8002010BD00003EB5204AC6
:1013B00007CA8DE8070000241EA000F063F92C483E
:1013C00000F022FC0446002C18DD2A4800F05AF9EF
:1013D000294800F057F921466846FFF75DFC27A031
:1013E00000F050F9684600F04DF927A000F04AF9E6
:1013F00028A000F047F9FFF77BFC18E0601C28B933
:101400002AA000F03FF9FFF773FC10E0A01C18B908
:1014100036A000F037F90AE0E01C28B93AA000F045
:1014200031F9FFF765FC02E03DA000F02BF93EBD6D
:101430003821000857616974696E6720666F7220F1
:101440007468652066696C6520746F20626520731E
:10145000656E74202E2E2E202870726573732027DF
:10146000612720746F2061626F7274290A0D000079
:1014700058010020F4220008580000200A0D2053D3
:10148000697A653A200000002042797465730D0A7C
:10149000000000002D2D2D2D2D2D2D2D2D2D2D2D30
:1014A0002D2D2D2D2D2D2D0A000000000A0A0D5482
:1014B00068652050726F6772616D2073697A65206C
:1014C000697320686967686572207468616E20744A
:1014D000686520616C6C6F7765642073706163650B
:1014E000206D656D6F7279210A0D00000A0A0D5694
:1014F0006572696669636174696F6E206661696CA3
:101500006564210A0D0000000D0A0A41626F7274C1
:10151000656420627920757365722E0A0D000000E3
:101520000A0D4661696C656420746F20726563659D
:10153000697665207468652066696C65210A0D000E
:1015400010B504462021064800F040FA28B10448AE
:1015500000F0B6FA2070012010BD0020FCE700006A
:101560000038014010B504462146054800F0ADFAA8
:1015700000BF8021024800F029FA0028F9D010BDF0
:101580000038014070B5002500240FA000F07AF863
:10159000FFF73CFB0446432C0FD14FF4C03218A197
:1015A0001D4800F089FC05461DB11CA000F06AF83A
:1015B00006E025A000F066F802E00CB9FFF798FB02
:1015C0002AA000F05FF870BD0A0A0D53656C6563D0
:1015D0007420526563656976652046696C65202EC6
:1015E0002E2E2028707265737320616E79206B65D2
:1015F0007920746F2061626F7274290A0D000000F7
:1016000055706C6F61646564466C617368496D61A7
:1016100067652E62696E0000008000080A0D457241
:10162000726F72204F636375726564207768696CAE
:1016300065205472616E736D697474696E672046BB
:10164000696C650A0D0000000A0D46696C6520543E
:101650007261736D69747465642053756363657337
:101660007366756C6C79200A0D0000000D0A0A4142
:10167000626F7274656420627920757365722E0AD8
:101680000D00000010B5044603E02078FFF76AFF64
:10169000641C20780028F8D110BD10B500F002F8C5
:1016A00010BD00000CB50020019000903348006888
:1016B00040F480303149086000BF3048006800F4D1
:1016C000003000900198401C0190009818B90198D2
:1016D000B0F5A06FF1D12948006800F4003010B1D6
:1016E0000120009001E0002000900098012843D1E3
:1016F0002348006840F0100021490860084600684F
:1017000020F0030008600846006840F0020008600E
:101710001A484068194948600846406848600846C9
:10172000406840F4806048600846406820F47C10BF
:1017300048600846406840F4E81048600846006881
:1017400040F08070086000BF0C48006800F0007036
:101750000028F9D00948406820F003000749486094
:101760000846406840F00200486000BF03484068F7
:1017700000F00C000828F9D10CBD00000010024058
:101780000020024070B502460C46002100250023CF
:101790001078302843D15078782802D050785828D3
:1017A0003DD1907808B9002070BD022130E0505C36
:1017B00010B9236001252DE0505C412802DB505C0C
:1017C00046280BDD505C612802DB505C662805DD95
:1017D000505C302819DB505C392816DC505C30280E
:1017E00005DB505C392802DC505C30380AE0505C84
:1017F000412805DB505C462802DC505C373801E0AC
:10180000505C573800EB031301E0002502E0491C4F
:101810000B29CCD300BF0B2934D3002532E00021A3
:101820002AE0505C10B92360012527E0505C6B284A
:1018300002D0505C4B2804D119B19B0223600125D2
:101840001CE0505C6D2802D0505C4D2804D119B1C9
:101850001B052360012511E0505C302809DB505C3A
:10186000392806DC505C303803EB830600EB460376
:1018700001E0002502E0491C0B29D2D300BF0B294F
:1018800000D3002528468FE7042808D14FF0E02137
:10189000096941F004014FF0E022116107E04FF0C7
:1018A000E021096921F004014FF0E0221161704745
:1018B0007047000010B51348006840F0010011495E
:1018C000086008464068104908400E4948600846CC
:1018D00000680E4908400B4908600846006820F47B
:1018E000802008600846406820F4FE0048604FF4FD
:1018F0001F008860FFF7D1FE4FF0006004490860C8
:1019000010BD0000001002400000FFF8FFFFF6FECF
:1019100008ED00E000B587B0012144F20400FFF7B4
:1019200047FB4FF40070ADF8180003208DF81A0043
:1019300018208DF81B0006A91C48FFF7DCF84FF4AF
:101940008060ADF8180004208DF81B0006A9174828
:10195000FFF7D1F84FF44070FFF712FB25208DF808
:10196000040003208DF805008DF8060001208DF895
:10197000070001A8FFF7CCFA4FF4E13002900020F5
:10198000ADF80C00ADF80E00ADF81000ADF8140085
:101990000C20ADF8120002A9054800F025F801213D
:1019A000034800F007F807B000BD00000008014040
:1019B0000038014021B1828942F40052828104E062
:1019C00082894DF6FF731A408281704702460020DB
:1019D000B1F5007F00D100BF13880B400BB101208F
:1019E00000E00020704700002DE9F04786B0054672
:1019F0000E460024A24600BFA1460027B08900B1D0
:101A000000BF2F462C8A4CF6FF700440F088044338
:101A10002C82AC894EF6F3100440B088318908431B
:101A2000718908430443AC81AC8A4FF6FF400440FF
:101A3000B0890443AC8201A8FFF72AFB1F48874204
:101A400002D1DDF810A001E0DDF80CA0A88900F4B7
:101A5000004040B10AEBCA0000EB0A1031684900AF
:101A6000B0FBF1F807E00AEBCA0000EB0A1031689E
:101A70008900B0FBF1F86420B8FBF0F00401200904
:101A8000642101FB1089A88900F4004040B1322094
:101A900000EBC900B0FBF1F000F00700044308E0E0
:101AA000322000EB09106421B0FBF1F000F00F00D0
:101AB00004432C8106B0BDE8F087000000380140E7
:101AC00001468888C0F308007047C1F3080282808D
:101AD000704710B503460C46194644F4807200BFA7
:101AE0004900520002F4807000B1491C01F48030BA
:101AF00010B141F22100414002F480300028EFD0C3
:101B000088B210BD00BFFEE72DE9FE4305460F4633
:101B100090460120287000206870FF20A8700024E3
:101B200004E0395DE01C2954601C84B2385D08B1C2
:101B3000FF2CF6DD0021E01C29546846D8F800107F
:101B4000FFF7AAF80026201D84B208E03046711C79
:101B50008EB21DF800202046611C8CB22A541DF85C
:101B600006000028F2D1264603E00020A855701C8C
:101B700086B2832EF9DBBDE8FE83F0B50746144636
:101B80001D46B5F5806F02D34FF4806C01E04FF035
:101B9000800C63469D4201D2AC4600E09C461FFA91
:101BA0008CF2B3F5806F04D14FF0020C81F800C0C5
:101BB00003E04FF0010C81F800C04C706FEA040C98
:101BC00081F802C03E46032007E016F801CB01F879
:101BD00000C000F1010C1FFA8CF002F1030C60450B
:101BE000F3DB9A420EDC1FFA8CF007E04FF01A0C80
:101BF00001F800C000F1010C1FFA8CF003F1030C96
:101C00006045F3DBF0BD00002DE9F04FADF22C4D47
:101C100006460020019098489849086000200390EB
:101C20008246834600BF002700200290B04600BFD6
:101C30004FF4801204A909A8FFF751FB10B1012845
:101C400075D1EDE04FF0000A0498B0F1FF3F01D0EC
:101C500008BB07E00620FFF7A1FB00200DF22C4D8A
:101C6000BDE8F08F8648007858B90120FEF7BAFC2D
:101C700083480078401C824908701520FFF78EFBCE
:101C800008E00120FEF7AEFC0620FFF787FB4320AB
:101C9000FFF784FBC2E09DF82500F9B2884209D025
:101CA0000120FEF79FFC0620FFF778FB0120039040
:101CB0000290B2E0002F71D19DF82700002862D079
:101CC00000250DF1270405E014F8012B28466D1CB2
:101CD0006C490A54207808B1FF2DF5DD0022284612
:101CE0006D1C68490A540025641C05E014F8012B9A
:101CF00028466D1C05A90A542078202801D0102DF3
:101D0000F4DB002228466D1C05A90A5401A905A888
:101D1000FFF738FD0198B0F5003F09DB1820FFF709
:101D20003DFB1820FFF73AFB4FF0FF3096E780E0CD
:101D30000198FEF731FE54490860002053490860BD
:101D400010E04E490968524A1288504B1B6802FB4A
:101D50000310FEF7C9FD4F4908704C480068401C4D
:101D60004A4908604948006847490968884203D2DF
:101D7000484800780428E4D00620FFF70FFB4320F2
:101D8000FFF70CFB46E01820FFF708FB1820FFF7D1
:101D900005FB01200290039040E0FFE70DF12701D1
:101DA0004046049AFEF7A8FA3B4806604FF0000947
:101DB00023E039480068016830480068FEF706FEF5
:101DC0002E4800680068344909680968884208D0CC
:101DD0001820FFF7E3FA1820FFF7E0FA6FF0010090
:101DE0003CE726480068001D244908602A4800682E
:101DF000001D2949086009F104090498814506DAA3
:101E00001D49019808441D4909688842D1D8062017
:101E1000FFF7C4FA7F1C4FF0010B00BF00BF1CE0AE
:101E20001820FFF7BBFA1820FFF7B8FA6FF002008E
:101E300014E7BBF1000F01DD0AF1010ABAF1050F49
:101E400007DD1820FFF7AAFA1820FFF7A7FA0020ED
:101E500004E74320FFF7A2FA00BF00BF0298002862
:101E60003FF4E6AE00BF00BF039800283FF4DBAEAE
:101E700000BF00BF0198F1E60080000800000020CC
:101E800018000020580000200C000020080000204E
:101E900004000020100000201400002070B505464A
:101EA0000E46002404E0285DFFF778FA601C84B237
:101EB000B442F8DB70BD00002DE9F74FADF5A36D1E
:101EC00000200190814600248046002606E0DDF8CF
:101ED0001C05805D04A98855701CC6B2FF2EF6DB78
:101EE000012001900DF5A46204A944A8FFF70CFE9F
:101EF00000BF832144A8FFF7D1FF019860B1802182
:101F00000DF21310FEF753FB05462812FFF746FAB1
:101F1000E8B2FFF743FA08E080210DF21310FEF754
:101F20003AFB03900398FFF739FA42F2107102A8C6
:101F3000FFF7C4F930B99DF80800062803D14FF027
:101F4000010800E0641CB8F1000F01D10A2CD0D3C5
:101F50000A2C04D3E0B20DF2245DBDE8F08FDDF869
:101F600018A5DDF820954FF0010B59E00BF0FF02AA
:101F70004B4644A95046FFF700FE4FF000080020F2
:101F80008DF80800002400BFB9F5806F02D34FF42C
:101F9000806700E08027F81C81B244A8FFF77EFF2D
:101FA000019860B139460DF21310FEF700FB0546AB
:101FB0002812FFF7F3F9E8B2FFF7F0F908E0394625
:101FC0000DF21310FEF7E7FA03900398FFF7E6F916
:101FD000544902A8FFF772F9C0B99DF80800062815
:101FE00014D14FF00108B9450CD9BA44A9EB07093F
:101FF000BBF1600F01D1FF20ADE70BF101001FFA2B
:1020000080FB04E0BA444FF0000900E0641CB8F122
:10201000000F01D10A2CB7D30A2C01D3E0B29AE702
:10202000B9F1000FA2D14FF0000800208DF8080090
:10203000002400BF0420FFF7B1F942F2107102A89A
:10204000FFF73CF930B99DF80800062802D14FF09F
:10205000010800E0641CB8F1000F01D10A2CE9D39B
:102060000A2C01D3E0B276E74FF0000800208DF88B
:102070000800002401208DF8100100208DF81101C6
:10208000FF208DF81201032604E0002044A98855A2
:10209000701CC6B2832EF8DB00BF832144A8FFF773
:1020A000FDFE80210DF21310FEF781FA054628127D
:1020B000FFF774F9E8B2FFF771F942F2107102A864
:1020C000FFF7FCF830B99DF80800062803D14FF05F
:1020D000010800E0641CB8F1000F01D10A2CDCD328
:1020E0000A2C01D3E0B236E700BF0420FFF756F90F
:1020F00042F2107102A8FFF7E1F830B99DF808002C
:10210000062802D14FF0010800E0641CB8F1000F6E
:1021100001D10A2CE9D30A2C01D3E0B21BE700203D
:1021200019E70000A0860100FEF792FCFEF7AEFD65
:10213000FEF71CFE00BFFEE72000000000000000CC
:10214000000000002020446F776E6C6F6164204EA9
:1021500065772050726F6772616D20546F20202068
:102160007468652053544D33324631307820496EBF
:102170007465726E616C20466C617368202D2D2D24
:102180002D2D2D2D20310D0A0A0000002020557024
:102190006C6F61642020202020202050726F6772B5
:1021A000616D2046726F6D207468652053544D3305
:1021B000324631307820496E7465726E616C20460B
:1021C0006C617368202D2D2D2D2D2D2D20320D0AA3
:1021D0000A00000020204578656375746520546806
:1021E00065206F6C642050726F6772616D202D2DB9
:1021F0002D2D2D2D2D2D2D2D2D2D2D2D2D2D2D2D0F
:102200002D2D2D2D2D2D2D2D2D2D2D2D2D2D2D2DFE
:102210002D2D2D2D20330D0A0A0000000D0A3D3D05
:102220003D3D3D3D3D3D3D3D3D3D3D3D3D3D3D3DDE
:102230003D3D3D3D3D3D204D61696E204D656E75D6
:10224000203D3D3D3D3D3D3D3D3D3D3D3D3D3D3DDB
:102250003D3D3D3D3D3D3D3D3D3D0D0A0A000000FB
:102260003D3D3D3D3D3D3D3D3D3D3D3D3D3D3D3D9E
:102270003D3D3D3D3D3D3D3D3D3D3D3D3D3D3D3D8E
:102280003D3D3D3D3D3D3D3D3D3D3D3D3D3D3D3D7E
:102290003D3D3D3D3D3D3D3D3D3D3D3D3D3D3D3D6E
:1022A0003D0D0A0A000000002E2E2E616E64206192
:1022B0002053797374656D20526573657420776956
:1022C0006C6C2062652067656E6572617465642060
:1022D000746F2072652D6C6F616420746865206E68
:1022E0006577206F7074696F6E2062797465730D05
:1022F0000A0000000A0A0D2050726F6772616D6D4E
:10230000696E6720436F6D706C65746564205375EA
:10231000636365737366756C6C79210A0D2D2D2DC1
:102320002D2D2D2D2D2D2D2D2D2D2D2D2D2D2D2DDD
:102330002D2D2D2D2D2D2D2D2D2D2D2D2D0D0A201D
:102340004E616D653A2000006823000800000020FF
:102350005800000028010008C02300085800002091
:10236000600B000044010008008000080004000029
:102370000000000000000000040000000000000059
:10238000000000000000000000000000000000004D
:102390000000000000000000000000000102030433
:1023A00001020304060708090204060800A24A0401
:1023B00000000000000000000102030406070809F5
:04000005080000ED02
:00000001FF
